:100000000C94AB170C94D5170C94D5170C94D517EA
:100010000C94D5170C94D5170C94D5170C94D517B0
:100020000C94D5170C94D5170C94D5170C94D517A0
:100030000C94D5170C94DE320C94D5170C94D5176C
:100040000C94D5170C946B270C940EC50C94D517F3
:100050000C94069F0C94D5170C94D5170C94D517B7
:100060000C94D5170C94D5170C94D5170C94D51760
:100070000C94D5170C94D5170C94D5170C94D51750
:100080000C94F3330C94D5170C94D51705A84CCDCC
:10009000B2D44EB93836A9020C50B9918688083CC2
:1000A000A6AAAA2ABE000000803F4E414E494E49F2
:1000B0005459494E46CDCCCC3D0AD7233C17B7D135
:1000C0003877CC2B329595E6241FB14F0A000020DB
:1000D000410000C84200401C4620BCBE4CCA1B0E5A
:1000E0005AAEC59D74627573793A207061757365F7
:1000F0006420666F7220696E7075740A0062757391
:10010000793A2070617573656420666F722075732B
:1001100065720A00627573793A2070726F63657355
:1001200073696E670A004B494C4C45442E20004BC6
:10013000494C4C2063617573656420627920746F4B
:100140006F206D75636820696E61637469766520E0
:1001500074696D65202D2063757272656E742063FD
:100160006F6D6D616E643A2000506C65617365203F
:100170007265736574005052494E5445522048418F
:100180004C544544005072696E7465722068616C0D
:100190007465642E206B696C6C28292063616C6C1B
:1001A0006564210A0000000000000000000000005B
:1001B000000000484200004842000080400000006B
:1001C000005761726E696E673A20486F6D696E679D
:1001D0002042756D702044697669736F72203C20EF
:1001E000310A000202040000A0400000A04000000C
:1001F000004000006B4300006B4300006B43FFFFB7
:10020000FF7C3C3E5E2B3D3F2F5B5D3B2C2A225CFE
:10021000004572726F722077726974696E6720741C
:100220006F20454550524F4D210A00454550524FD1
:100230004D206461746173697A65206572726F72B2
:100240002E0A00290A002062797465733B206372CC
:1002500063200053657474696E67732053746F7202
:100260006564202800290A002062797465733B20A8
:1002700063726320002073746F7265642073657409
:1002800074696E677320726574726965766564203F
:100290002800202863616C63756C61746564292192
:1002A0000A0020213D2000454550524F4D20435229
:1002B00043206D69736D61746368202D2028737409
:1002C0006F7265642920002053697A653A200049DD
:1002D0006E6465783A2000204D61726C696E3D56FF
:1002E0003536290A0028454550524F4D3D004545B9
:1002F00050524F4D2076657273696F6E206D697331
:100300006D61746368200048617264636F64656442
:100310002044656661756C742053657474696E67FA
:1003200073204C6F616465640A00F4010000F401FD
:10033000000064000000881300000000FA43000081
:10034000FA43000070410000C8410000A0420000D4
:10035000A0420000C843AE47B9423A0A0020286DC7
:100360006D290020204D383531205A005A2D507209
:100370006F6265204F6666736574002044002049F3
:100380000020204D3330342050002044002049000C
:1003900020204D3330312050005049442073657483
:1003A00074696E67733A0A002046002042002048B4
:1003B0000020204D3134352053004D617465726941
:1003C000616C2068656174757020706172616D6523
:1003D000746572733A0A00205A00204A00202047B0
:1003E00032392057204900205A0020204D34323025
:1003F0002053004175746F20426564204C6576651A
:100400006C696E673A0A00205A0020590020204D7E
:10041000323036205800486F6D65206F6666736510
:10042000743A0A00204500205A0020590020580044
:1004300020540020530020204D3230352051002020
:10044000453C6D61785F655F6A65726B3E00205860
:100450003C6D61785F785F6A65726B3E20593C6DD8
:1004600061785F795F6A65726B3E205A3C6D617896
:100470005F7A5F6A65726B3E00416476616E6365A8
:10048000643A20513C6D696E5F7365676D656E748B
:100490005F74696D655F75733E20533C6D696E5F77
:1004A00066656564726174653E20543C6D696E5F7B
:1004B00074726176656C5F66656564726174653ED1
:1004C0000020540020520020204D323034205000B3
:1004D000416363656C65726174696F6E2028756E27
:1004E0006974732F7332293A20503C7072696E74AC
:1004F0005F616363656C3E20523C72657472616338
:10050000745F616363656C3E20543C747261766510
:100510006C5F616363656C3E0A00204500205A00F1
:1005200020590020204D3230312058004D6178692B
:100530006D756D20416363656C65726174696F6E82
:100540002028756E6974732F7332293A0A0020458A
:1005500000205A0020590020204D3230332058000E
:100560004D6178696D756D2066656564726174654D
:10057000732028756E6974732F73293A0A00204519
:1005800000205A0020590020204D393220580053B5
:10059000746570732070657220756E69743A0A0014
:1005A00020204D3134392043203B20556E6974732F
:1005B00020696E2043656C736975730A00202047BB
:1005C0003231202020203B00486F6D696E67206625
:1005D00061696C656400545249474745524544007F
:1005E0006F70656E003A20007A5F6D696E00795F0A
:1005F0006D696E00785F6D696E005265706F727420
:10060000696E6720656E6473746F702073746174B3
:1006100075730A0020746F6F206C6F6E67206578A9
:1006200074727573696F6E2070726576656E74652D
:10063000640A0020636F6C64206578747275736956
:100640006F6E2070726576656E7465640A0024F4BE
:10065000D43050C38E20C2A24017828B7011127A00
:10066000910D816CD90AA861E108C75866076151EC
:1006700043061E4B5D05C145A7041A411104093DFF
:100680009803713931034036DB0265339102D4306F
:100690005402802E1D02632CEE01752AC501B0287C
:1006A000A001102781018F2564012B244B01E0223A
:1006B0003401AC211F018D200D01801FFC00841E20
:1006C000ED00971DDF00B81CD200E61BC600201B02
:1006D000BC00641AB200B219A8000A19A0006A1876
:1006E0009900D117910040178B00B5168400311680
:1006F0007E00B31579003A157300C7146F005814C3
:100700006A00EE1366008813630025135E00C712AB
:100710005B006C12570015125400C111510070118A
:100720004F0021114B00D61049008D104700461094
:10073000440002104200C00F4000800F3E00420FF4
:100740003C00060F3B00CB0E3800930E37005C0ECA
:100750003500270E3400F30D3200C10D3100900D2D
:100760003000600D2E00320D2D00050D2C00D90C2F
:100770002B00AE0C2900850C29005C0C2700350CE1
:1007800027000E0C2600E80B2400C40B2400A00B4D
:1007900023007D0B23005A0B2100390B2100180B7D
:1007A0002000F80A1F00D90A1E00BB0A1E009D0A7D
:1007B0001D00800A1D00630A1C00470A1B002C0A4A
:1007C0001B00110A1A00F7091A00DD091900C409F3
:1007D0001900AB091900920917007B091800630979
:1007E00017004C09160036091600200916000A09E0
:1007F0001500F5081500E0081400CC081400B8082E
:100800001400A4081400900813007D0812006B085F
:10081000130058081200460812003408110023087B
:1008200011001208110001081100F0071000E00784
:100830001000D0071000C0071000B0070F00A1077C
:10084000100091070E0083070F0074070F00650763
:100850000E0057070E0049070E003B070D002E073C
:100860000E0020070D0013070D0006070D00F90606
:100870000C00ED060D00E0060C00D4060C00C806C6
:100880000C00BC060C00B0060C00A4060B00990678
:100890000C008D060B0082060B0077060B006C0621
:1008A0000B0061060A0057060B004C060A004206C0
:1008B0000A0038060A002E060A0024060A001A0654
:1008C0000A001006090007060A00FD050900F405E4
:1008D0000900EB050900E2050900D9050900D0056A
:1008E0000900C7050900BE050900B5050800AD05EA
:1008F0000800A50509009C050800940508008C0562
:100900000800840508007C050800740508006C05D3
:100910000700650508005D050700560508004E053F
:1009200007004705070040050800380507003105A6
:1009300007002A050700230507001C050600160509
:1009400007000F0507000805060002050700FB0465
:100950000600F5040700EE040600E8040600E204C1
:100960000700DB040600D5040600CF040600C90416
:100970000600C3040600BD040600B7040600B10467
:100980000500AC040600A6040600A00405009B04B4
:10099000060095040500900406008A0405008504FD
:1009A0000500800406007A04050075040500700443
:1009B00005006B04050066040500610405005C0485
:1009C000050057040500520405004D0405004804C5
:1009D0000500430405003E0404003A040500350404
:1009E0000500300404002C0405002704040023043F
:1009F00005001E0404001A04040016040500110476
:100A000004000D04040009040500040404000004AB
:100A10000400FC030400F8030400F4030400F003E2
:100A20000400EC030400E8030400E4030400E00312
:100A30000400DC030400D8030400D4030400D00342
:100A40000400CC030400C8030300C503030024F41E
:100A500004D9201BC40C5C0E9804C4095F0265070E
:100A60007101F405F900FB04B30048048700C103D9
:100A700069005803550003034500BE023A00840292
:100A8000310053022A002902250004022000E4015B
:100A90001C00C8011900AF0117009801140084015F
:100AA0001300710110006101100051010E0043019B
:100AB0000D0036010B002B010B0020010B0015016E
:100AC00009000C01090003010800FB000800F30005
:100AD0000800EB000700E4000600DE000600D80076
:100AE0000600D2000600CC000500C7000500C200C9
:100AF0000500BD000400B9000400B5000400B10009
:100B00000400AD000400A9000400A5000300A20039
:100B100003009F0004009B00030098000300950061
:100B2000020093000300900003008D0002008B0080
:100B30000300880002008600020084000300810098
:100B400002007F0002007D0002007B0002007900AD
:100B500002007700010076000200740002007200BB
:100B60000100710002006F0002006D0001006C00C6
:100B700002006A00010069000200670001006600CF
:100B800001006500010064000200620001006100D4
:100B90000100600001005F0002005D0001005C00D8
:100BA00001005B0001005A000100590001005800DB
:100BB00001005700010056000100550001005400DB
:100BC00001005300000053000100520001005100D9
:100BD0000100500001004F0001004E0000004E00D7
:100BE00001004D0001004C0001004B0000004B00D3
:100BF00001004A00010049000100480000004800CF
:100C000001004700010046000000460001004500C9
:100C100000004500010044000100430000004300C3
:100C200001004200000042000100410000004100BC
:100C30000100400001003F0000003F0001003E00B5
:100C400000003E0001003D0000003D0001003C00AE
:100C500000003C0000003C0001003B0000003B00A5
:100C600001003A0000003A0001003900000039009C
:100C70000100380000003800000038000100370093
:100C8000000037000100360000003600000036008A
:100C9000010035000000350000003500010034007F
:100CA0000000340000003400010033000000330075
:100CB000000033000100320000003200000032006A
:100CC000010031000000310000003100010030005F
:100CD000000030000000300001002F0000002F0055
:100CE00000002F0000002F0001002E0000002E0049
:100CF00000002E0001002D0000002D0000002D003E
:100D000000002D0001002C0000002C0000002C0031
:100D100000002C0001002B0000002B0000002B0025
:100D200000002B0001002A0000002A0000002A0019
:100D300000002A000100290000002900000029000D
:100D40000000290000002900010028000000280000
:100D500000002800000028000000280001002700F3
:100D600000002700000027000000270000002700E7
:100D700001002600000026000000260000002600DA
:100D800000002600010025000000250000002500CD
:100D900000002500000025000000250001002400BF
:100DA00000002400000024000000240000002400B3
:100DB00001002300000023000000230000002300A6
:100DC0000000230000002300000023000100220097
:100DD000000022000000220000002200000022008B
:100DE000000022000100210000002100000021007D
:100DF000000021000000210000002100000021006F
:100E00000100200000002000000020000000200061
:100E10000000200000002000000020000000200052
:100E200001001F0000001F0000001F0000001F0045
:100E300000001F0000001F0000001F0001001E0036
:100E400000001E0000001E0000001E00000004370D
:100E500000001E290000511B00005810000010095E
:100E60000000CC040000780200004101000062652F
:100E7000640A002C2073797374656D2073746F702D
:100E800070656421204865617465725F49443A2049
:100E9000004265642068656174696E6720666169F7
:100EA0006C65640048656174696E67206661696C91
:100EB00065640045312048656174696E672066612C
:100EC000696C65640048656174696E672066616974
:100ED0006C65640070012C0190012701B0012201B2
:100EE000C0011D01F00118011002130130020E01B2
:100EF0006002090190020401C002FF000003FA0031
:100F00004003F5008003F000D003EB002004E6006E
:100F10007004E100E004DC004005D700C005D20009
:100F20004006CD00D006C8008007C3003008BE00D0
:100F3000F008B900C009B400B00AAF00B00BAA00B5
:100F4000D00CA500000EA000500F9B00C010960012
:100F50005012910000148C00C0158700B017820059
:100F6000B0197D00D01B7800001E730040206E0079
:100F700090226900F024640040275F0090295A0005
:100F8000E02B5500102E500020304B001032460050
:100F9000E033410090353C001037370070383200A4
:100FA000A0392D00B03A2800A03B2300603C1E0071
:100FB000103D1900903D1400103E0F00703E0A00D5
:100FC000C03E0500003F0000403FFBFF803FF6FFB2
:100FD000C03FF1FF453120544845524D414C20520D
:100FE000554E415741590042454420544845524DC1
:100FF000414C2052554E4157415900546865726D1D
:10100000616C2052756E61776179004531204572BF
:10101000723A204D415854454D50004572723A2065
:101020004D415854454D5020424544004D4158547F
:10103000454D50207472696767657265640045317B
:10104000204572723A204D494E54454D500045722C
:10105000723A204D494E54454D5020424544004D72
:10106000494E54454D5020747269676765726564D6
:10107000004D383420582059205A204500202F0098
:101080002042403A0020403A0025753A253032751A
:1010900000253032753A25303275002575642025DB
:1010A0003032753A25303275002020202020200073
:1010B0005A0059002020202000580009200000007C
:1010C00000000000000000000000003FFFF00000F2
:1010D0000000000000000000000000380070000068
:1010E000000000000000000000000030FC300000A4
:1010F000000000000000000000000020FC100000C4
:101100000000000000000000000000207810000037
:10111000000000000000000000000020301000006F
:1011200000000000000000000000002C00D0F801CA
:1011300080000C1FE00000000000002E31D04800AD
:101140008000123FF00000000000002F7BD043C35E
:101150008CD0023FF00000000000002F7BD07124F3
:101160009267CC3FF00000000000002E31D04124F7
:101170009E40021FE00000000000002C00D0492427
:101180009040121FE0000000000000203010FBB370
:10119000CEE00C3FF00000000000002078100000BE
:1011A0000000003FF000000000000020FC100000E4
:1011B0000000003FF000000000000030FC300000A4
:1011C0000000000FC00000000000003800700000A8
:1011D00000000007800000FFFFC0003FFFF000009C
:1011E00000000003000000FFFFC00000000000003E
:1011F00000000000000000000000003FFFF00000C1
:101200000000000000000000000000380070000036
:1012100000000000000000000000003387300000E4
:101220000000000000000000000000278790000080
:1012300000000000000000000000002F87D0000028
:1012400000000000000000000000002F87D0000018
:1012500000000000000000000000002F03D0F80193
:1012600080000C1FE00000082080002030104800A3
:101270008000123FF000000410400020781043C3AB
:101280008CD0023FF0000004104000207810712440
:101290009267CC3FF00000082080002030104124ED
:1012A0009E40021FE00000104100002F03D049249F
:1012B0009040121FE00000208200002F87D0FBB377
:1012C000CEE00C3FF00000208200002F87D000000D
:1012D0000000003FF0000010410000278790000050
:1012E0000000003FF000000820800033873000003D
:1012F0000000000FC0000000000000380070000077
:1013000000000007800000FFFFC0003FFFF000006A
:1013100000000003000000FFFFC000000000456E59
:101320006465722D332052656164792E00507269B4
:101330006E74696E672E2E2E005072696E74207066
:10134000617573656400436D643A2053746F770070
:10135000436D643A204465706C6F7900436D643A64
:101360002053656C662D5465737400436D643A2098
:1013700053572D4D6F646500436D643A2052657379
:101380006574004D61696E005072696E742061620F
:101390006F72746564004D3231004E6F20534420EB
:1013A00063617264004368616E6765205344206323
:1013B000617264004D3231005072696E7420667241
:1013C0006F6D2053440053746F70207072696E7497
:1013D00000526573756D65207072696E7400496E98
:1013E00069742E20534420636172640050617573E8
:1013F00065207072696E7400436F6E74726F6C005A
:10140000507265706172650054756E6500496E6654
:101410006F2073637265656E0050726F6265205A4B
:10142000204F66667365740050726F6265205A20A3
:101430004F666673657400466C6F7700466C6F7715
:101440000046616E2073706565640046616E2073AE
:10145000706565640042656400426564004E6F7AA1
:101460007A6C65004E6F7A7A6C65005370656564BE
:10147000005370656564004D61696E005072656867
:1014800065617420504C4120456E6400507265685F
:1014900065617420504C412042656400507265685B
:1014A00065617420504C4100507265706172650036
:1014B000507265686561742041425320456E640036
:1014C0005072656865617420414253204265640032
:1014D00050726568656174204142530050726570B6
:1014E00061726500436D643A205265736574004D06
:1014F000323830205030205331363000436D643A5A
:101500002053656C662D54657374004D323830205D
:10151000503020533132300050726568656174205C
:10152000414253005072656865617420504C41001F
:10153000436F6F6C646F776E0044697361626C65B2
:10154000207374657070657273004D383400417596
:10155000746F20686F6D6500473238004D6F766597
:101560002061786973004D61696E00434F4D4D55A0
:101570004E49434154494F4E0044525952554E0032
:101580004552524F525300494E464F004543484F33
:1015900000656E7175657565696E672022004B493F
:1015A0004C4C45442E200053544F505045442E205F
:1015B000005072696E7465722073746F7070656428
:1015C0002064756520746F206572726F72732E20AF
:1015D00046697820746865206572726F7220616E4A
:1015E0006420757365204D39393920746F20726518
:1015F00073746172742E202854656D706572617405
:101600007572652069732072657365742E20536549
:1016100074206974206166746572207265737461E8
:101620007274696E67290A004E6F20436865636BA8
:1016300073756D2077697468206C696E65206E75AE
:101640006D6265722C204C617374204C696E653A32
:1016500020004E6F20436865636B73756D2077695A
:101660007468206C696E65206E756D6265722C20E1
:101670004C617374204C696E653A20006368656341
:101680006B73756D206D69736D617463682C204C8C
:10169000617374204C696E653A20004C696E652058
:1016A0004E756D626572206973206E6F74204C6197
:1016B0007374204C696E65204E756D6265722B31B6
:1016C0002C204C617374204C696E653A20004D31BA
:1016D0003130004D33310053442072656164206520
:1016E00072726F720A00446F6E65207072696E7458
:1016F000696E672066696C650A0020496E76616CC8
:101700006964206578747275646572200000000059
:1017100000000000000000000000006B4300006BB0
:101720004300006B4342696C696E656172204C65D1
:1017300076656C696E6720477269643A0A002028F2
:1017400044525952554E2900473239204175746F21
:1017500020426564204C6576656C696E67003F20A9
:10176000284C2C522C462C4229206F7574206F6611
:1017700020626F756E64732E0A003F2856296572C9
:10178000626F7365206C6576656C20697320696D86
:10179000706C61757369626C652028302D34292E58
:1017A0000A00426164205A2076616C75650A004E19
:1017B0006F2062696C696E65617220677269640A84
:1017C0000050726F7465637465642050696E0A001E
:1017D0005374616E646172642044657669617469F2
:1017E0006F6E3A20002052616E67653A2000204DEE
:1017F00061783A2000204D696E3A20004D65616E97
:101800003A200046696E6973686564210A00207297
:10181000616E67653A2000206D61783A2000206D86
:10182000696E3A2000207369676D613A2000206D6F
:1018300065616E3A20003A207A3A2000206F6620D7
:1018400000205A00205900205800476F696E672019
:10185000746F3A00436C6F636B776973650A00437A
:101860006F756E7465722D002044697265637469CA
:101870006F6E3A2000202020616E676C653A200070
:101880005374617274696E67207261646975733A2A
:101890002000506F736974696F6E696E6720746899
:1018A000652070726F62652E2E2E0A003F4E756D98
:1018B000626572206F66206C65677320696E206DAB
:1018C0006F76656D656E74206E6F7420706C6175D7
:1018D0007369626C652028302D3135292E0A003F4E
:1018E0002028582C5929206F7574206F6620626F4C
:1018F000756E64732E0A003F53616D706C652073C2
:10190000697A65206E6F7420706C61757369626CA2
:10191000652028342D3530292E0A004D3438205AC0
:101920002D50726F626520526570656174616269E5
:101930006C69747920546573740A003F28562965D0
:1019400072626F7365206C6576656C2069732069BF
:101950006D706C61757369626C652028302D342957
:101960002E0A0020573A004520436F6F6C696E675E
:101970002E2E2E00452048656174696E672E2E2E2E
:101980000020573A0042656420636F6F6C696E6790
:101990002E2E2E004265642068656174696E672E84
:1019A0002E2E00205A3A0020593A0020436F756EBF
:1019B0007420583A0020453A00205A3A0020593AFB
:1019C00000583A003A004361703A00205A0020590A
:1019D00000580020204D61783A2000205A002059FC
:1019E00000580020204D696E3A20004F6E20004FB5
:1019F000666600536F667420656E6473746F7073EF
:101A00003A20004B64200023646566696E652044BB
:101A1000454641554C545F004B6920002364656680
:101A2000696E652044454641554C545F004B70201B
:101A30000023646566696E652044454641554C54F3
:101A40005F00504944204175746F74756E6520665F
:101A5000696E6973686564212050757420746865C7
:101A6000206C617374204B702C204B6920616E6474
:101A7000204B6420636F6E7374616E7473206672A2
:101A80006F6D2062656C6F7720696E746F20436F95
:101A90006E66696775726174696F6E2E680A0050B0
:101AA0004944204175746F74756E65206661696C78
:101AB0006564212074696D656F75740A0045312075
:101AC000544845524D414C2052554E4157415900C2
:101AD00042454420544845524D414C2052554E41B8
:101AE00057415900546865726D616C2052756E6182
:101AF0007761790045312048656174696E672066B9
:101B000061696C6564004265642068656174696E32
:101B100067206661696C65640048656174696E6719
:101B2000206661696C656400504944204175746F9A
:101B300074756E65206661696C6564212054656DFD
:101B4000706572617475726520746F6F2068696763
:101B5000680A00204B643A2000204B693A2000209C
:101B60004B703A20000A20436C6173736963205004
:101B70004944200A002054753A2000204B753A2031
:101B800000206D61783A2000206D696E3A200020B7
:101B9000643A200020626961733A20005049442071
:101BA0004175746F74756E652073746172740A0088
:101BB000504944204175746F74756E652066616983
:101BC0006C6564212054656D706572617475726511
:101BD00020746F6F20686967680A0050494420418B
:101BE00075746F74756E65206661696C656421201B
:101BF000426164206578747275646572206E756DDB
:101C00006265720A004F66660A0046616465204894
:101C100065696768742000426564204C6576656C70
:101C2000696E6720004661696C656420746F206589
:101C30006E61626C6520426564204C6576656C69F6
:101C40006E670A004F666673657473206170706C0E
:101C5000696564004572723A20546F6F2066617244
:101C60002100546F6F206661722066726F6D207262
:101C700065666572656E636520706F696E740A00D3
:101C8000536C6565702E2E2E00486F6D6520585977
:101C90002066697273740A00486F6D652058592078
:101CA000666972737400205A3A200020593A200065
:101CB00042656420583A20004D65736820706F6952
:101CC0006E742063616E6E6F74206265207265733E
:101CD0006F6C7665640A00436C69636B20746F20D7
:101CE000726573756D652E2E2E004E6F206D6F76AA
:101CF000652E00456E642066696C65206C6973749E
:101D00000A00426567696E2066696C65206C6973BC
:101D1000740A00286E6F2066696C6529004375722D
:101D200072656E742066696C653A200053442070B9
:101D300072696E74696E67206279746520004E6FF7
:101D400074205344207072696E74696E670A00448F
:101D5000656C6574696F6E206661696C65642C20C2
:101D600046696C653A200046696C652064656C655F
:101D70007465643A002569730025696D20256973CF
:101D8000002569682025696D20256973002569642F
:101D9000202569682025696D2025697300256979EA
:101DA00020256964202569682025696D20256973CF
:101DB000005072696E742074696D653A20006F6618
:101DC00066008C158715801579156B1544454255AD
:101DD000473A004B494C4C45442E20004D3131339D
:101DE0002053006F6B00456E6465722D33204F6683
:101DF000662E002C20002C2000544845524D414CAA
:101E00005F50524F54454354494F4E004155544F33
:101E10005245504F52545F53445F535441545553AD
:101E200000454D455247454E43595F504152534539
:101E30005200434153455F4C494748545F42524921
:101E40004748544E45535300544F47474C455F4C09
:101E5000494748545300534F4654574152455F50E9
:101E60004F574552004255494C445F5045524345F7
:101E70004E54004C4556454C494E475F44415441F1
:101E8000005A5F50524F4245004155544F4C455601
:101E9000454C005052494E545F4A4F420050524FF9
:101EA0004752455353004155544F5245504F525499
:101EB0005F54454D5000564F4C554D455452494383
:101EC00000454550524F4D0053455249414C5F58D3
:101ED0004F4E5F584F4646004649524D5741524576
:101EE0005F4E414D453A4D61726C696E2062756777
:101EF0006669782D312E312E7820284769746875EF
:101F0000622920534F555243455F434F44455F5527
:101F1000524C3A68747470733A2F2F6769746875FD
:101F2000622E636F6D2F4D61726C696E4669726DC2
:101F3000776172652F4D61726C696E2050524F54FB
:101F40004F434F4C5F56455253494F4E3A312E3016
:101F5000204D414348494E455F545950453A456EDE
:101F60006465722D332045585452554445525F43A1
:101F70004F554E543A3120555549443A636564658E
:101F8000326132662D343161322D343734382D3997
:101F90006231322D633535633632663336376666E5
:101FA0000A002F2F20004D31343520533C696E64D8
:101FB00065783E206F7574206F662072616E67656C
:101FC0002028302D31290A0020540020520041637E
:101FD00063656C65726174696F6E3A205000574199
:101FE000524E494E4721204C6F77205A204A657245
:101FF0006B206D6179206C65616420746F20756E53
:1020000077616E746564207061757365732E0A0064
:1020100020466C6F773A200000010F150E12FFFF6B
:10202000FFFF16170E13FFFFFFFF03021A14FFFF37
:10203000FFFFFFFFFF0C04FFFFFF01000EFFFFFF8C
:102040000C190DFF183A200020536572766F20009E
:10205000206F7574206F662072616E67650A005389
:102060006572766F200050726F6265205A204F664D
:10207000667365743A2000496E76616C6964206508
:10208000787472756465720A0020643A0020693AB7
:102090000020703A0043290A0061626C65642028C0
:1020A0006D696E2074656D702000436F6C642065EF
:1020B0007874727564657320617265200020643ADB
:1020C0000020693A0020703A004E6F20636173650A
:1020D000206C696768740A004D65736820706F69C9
:1020E0006E742063616E6E6F74206265207265731A
:1020F0006F6C7665640A004D34323120696E636F0F
:10210000727265637420706172616D6574657220AE
:1021100075736167650A00454550524F4D204F4B1E
:102120000A003F5A206F7574206F662072616E67D7
:102130006520282D323020746F203230290A003A71
:10214000200050726F6265205A204F666673657476
:1021500000416374697665204578747275646572B0
:102160003A2000496E76616C6964206578747275F6
:102170006465720A00526573656E643A20006F6B85
:102180000020746F6F206C6F6E67206578747275B5
:1021900073696F6E2070726576656E7465640A008F
:1021A00020636F6C6420657874727573696F6E203C
:1021B00070726576656E7465640A004D6F76652091
:1021C00058004D6F76652059004D6F7665205A0096
:1021D0004578747275646572004D6F766520302E97
:1021E000316D6D004D6F766520316D6D004D6F76F0
:1021F000652031306D6D004D6F76652061786973B3
:10220000004578747275646572004D6F7665205A6A
:10221000004D6F76652059004D6F7665205800455A
:1022200078747275646572004D6F7665205A004D42
:102230006F76652059004D6F7665205800507265A5
:1022400070617265004C6F61642073657474696EAF
:10225000677300526573746F7265206661696C7391
:102260006166650053746F72652073657474696E7E
:10227000677300424C546F756368004D6F74696FEB
:102280006E0054656D7065726174757265004D61A4
:10229000696E004D33303320553120452569205378
:1022A000256900504944204175746F74756E65004E
:1022B000504944204175746F74756E6500504944EF
:1022C0002D44005049442D44005049442D490050AC
:1022D00049442D49005049442D50005049442D5047
:1022E0000020082046616374002008204661637462
:1022F000002008204D6178002008204D61780020E2
:1023000008204D696E002008204D696E004F6666FA
:10231000004F6E20004175746F74656D70004661EA
:102320006E2073706565640046616E20737065652C
:10233000640042656400426564004E6F7A7A6C65A1
:10234000004E6F7A7A6C6500436F6E74726F6C002A
:1023500050726F6265205A204F6666736574004341
:102360006F6E74726F6C0043616E6E6F7420656E79
:10237000746572207375626469723A2000022E2EB1
:10238000000152656672657368004D61696E0000F8
:10239000002100240027002A000000220025002838
:1023A000002B00000020002300260029000202026A
:1023B00002020202020404040404040404030303EA
:1023C00003030303030101010101010101010204EF
:1023D00008102040800102040810204080010204FF
:1023E00008102040808040201008040201000000F6
:1023F000010200090A0000000004030807000000B1
:1024000000000000000000000000000000000000CC
:10241000001000000000000000000000101000008C
:102420000000000000000018200000000000000074
:10243000000018200000000000000000001C200028
:1024400000000000000000000C3000000000000050
:1024500000001E1E300000000000000187FFFFFC8E
:10246000220000000001007F81FFFE11000000003B
:1024700001823003FFFF08800000000071F9FFFFB8
:10248000FF8440000000003FFFFFFFFF82200000AC
:10249000000003FE01FFFFC1180000000000000360
:1024A000FFFCE08C00000000000007FFFE707E00D3
:1024B00000000000001FFFFF7C060000000000007D
:1024C000FF03FFFF0F00000000001FF0003FFFFFB1
:1024D0000000000001FC00003FFFFF0000000000C2
:1024E000000006FFFFFF0000000000000003FFF8EF
:1024F0003F0000000000000000FFF81F0000000087
:10250000000000001FF80E000000000000000003A3
:10251000F806000000000000000000FC06000000BB
:102520000000000000007C06000000000000000029
:10253000003C000000000000000000001E00000041
:10254000000000000000000F40000000000000003C
:10255000000407C000000000000000000607C000E3
:1025600000000000000000810F00000000000000DB
:10257000000071FC0000000000000000001FE000EF
:10258000000000000000000000000000000000004B
:10259000000000000000000000000000000000003B
:1025A0008000000000FFFF800000078000000000A6
:1025B0007FFF8000001F80000000003C030000003F
:1025C0000700000000003C030000000700000000BE
:1025D0000078020000000E000000000078000000FB
:1025E000000E0000000000F0180CF003DC03C00037
:1025F0000000F0107FF80FFC0FE1FF8001E0307E5B
:1026000078387838F3FF8001FFE03838703860F0B0
:10261000F30001FFE07870E070E0F0E00003C060DC
:102620007070E071FFE1C0000380C0F0E1C0E1C064
:1026300001C000078000E0E3C0E3800380000700E2
:1026400000E1E381E3800380000F0031C1C381C357
:10265000804700000F0061C3C783C7818700001E49
:1026600000C383878387C30E00001E07C78787EFD9
:10267000E7FE0E0000FFFF9FDFC3FF83F87F8000AF
:102680000000000001E001E00000001FFFFFFFFF6D
:10269000FFFF600000000001FF400000000000FF9D
:1026A0008000000000007F83CF00000C303F87FFD8
:1026B00080000C301F867980000C000F8C30C7839F
:1026C0008C30E78C30CFC7CC31F38C30DCECEC3382
:1026D000B98C30D86C6C33198C30D06C0C33198CAD
:1026E00030D86C0C33198C30DC6C0E3B198C30CF2D
:1026F0007C079F198C30C77C038F194000000000B5
:102700000002600000000000061FFFFFFFFFFFF84F
:102710002020506C616E6E6572427566666572420D
:10272000797465733A20002046726565204D656DA9
:102730006F72793A2000436F6D70696C65643A205E
:102740004E6F7620203420323031390A00207C2030
:10275000417574686F723A2028656C6D65726F6898
:102760007565736F290A00323031382D30372D33BB
:102770003100204C61737420557064617465643A53
:1027800020006275676669782D312E312E780A0037
:102790004D61726C696E0020536F6674776172656B
:1027A0002052657365740A00205761746368646F12
:1027B000672052657365740A002042726F776E203D
:1027C0006F75742052657365740A002045787465CE
:1027D000726E616C2052657365740A00506F776584
:1027E0007255700A0073746172740A006175746FB7
:1027F00025692E67006572726F722077726974693D
:102800006E6720746F2066696C650A00456E64739C
:10281000746F707320256320256320256320256352
:1028200000205A3A0020593A0020583A00656E6458
:1028300073746F7073206869743A2000446F6E651A
:1028400020736176696E672066696C652E0A004D9B
:102850003239004D3234004D323320257300556E2D
:102860006B6E6F776E20636F6D6D616E643A2022C0
:102870000050726F62696E67206661696C65640AF8
:102880000050726F62696E67206661696C656400F2
:10289000205A3A200020593A200042656420583AD4
:1028A000200053442063617264206F6B0A006F70D4
:1028B000656E526F6F74206661696C65640A00769C
:1028C0006F6C756D652E696E6974206661696C65E3
:1028D000640A00534420696E6974206661696C0A59
:1028E00000486F6D65202573257325732066697216
:1028F0007374002066697273740A005A0059005894
:1029000000486F6D65200057726974696E672074A6
:102910006F2066696C653A20006F70656E20666195
:10292000696C65642C2046696C653A20006F70659F
:102930006E206661696C65642C2046696C653A207E
:102940000046696C652073656C65637465640A0094
:102950002053697A653A200046696C65206F70657E
:102960006E65643A20002066696C653A2000646FE9
:10297000696E67006672657368004E6F7720004568
:102980004E4420535542524F5554494E450A002259
:1029900020706F73002220706172656E743A22009D
:1029A000535542524F5554494E452043414C4C20BB
:1029B0007461726765743A22004B494C4C45442E51
:1029C0002000747279696E6720746F2063616C6C8B
:1029D000207375622D67636F64652066696C65732B
:1029E000207769746820746F6F206D616E79206C38
:1029F0006576656C732E204D4158206C6576656C4C
:102A00002069733A004572726F723A006F70656E9A
:102A1000206661696C65642C2046696C653A20000B
:102A200043616E6E6F74206F70656E2073756264A3
:102A3000697220006563686F3A0000060900FE07AE
:102A400001920321207FFF07FF07FF00000006001F
:102A5000000107070602008080808080008003025A
:102A600002060105A0A00507070600005050F85017
:102A7000F850500507070600002078A07028F020C5
:102A8000050707060000C0C8102040981805070772
:102A90000600006090A040A89068020303060104AD
:102AA000C04080030707060100204080808040204E
:102AB000030707060100804020202040800505050F
:102AC00006000120A870A8200505050600012020A9
:102AD000F820200203030602FFC040800501010622
:102AE0000003F8020202060200C0C0050505060048
:102AF00001081020408005070706000070888888BC
:102B000088887003070706010040C040404040E04D
:102B1000050707060000708808708080F805070721
:102B2000060000F81020100808F00507070600004E
:102B300010305090F81010050707060000F880F0DC
:102B400008088870050707060000708080F08888F4
:102B500070050707060000F8081020202020050750
:102B600007060000708888708888700507070600CF
:102B70000070888878080870020505060200C0C049
:102B800000C0C00206060602FFC0C000C0408004AC
:102B900007070600001020408040201005030306B0
:102BA0000002F800F804070706010080402010200A
:102BB00040800507070600007088081020002005E7
:102BC000070706000070880868A8A87005070706B0
:102BD0000000708888F8888888050707060000F0DC
:102BE0008888F08888F005070706000070888080D4
:102BF000808870050707060000F08888888888F0BC
:102C0000050707060000F88080F08080F8050707B8
:102C1000060000F88080F08080800507070600002D
:102C2000708880B888887005070706000088888843
:102C3000F8888888010707060200808080808080ED
:102C40008005070706000038101010109060050777
:102C5000070600008890A0C0A0908805070706001E
:102C600000808080808080F805070706000088D8F3
:102C7000A8888888880507070600008888C8A8985B
:102C8000888805070706000070888888888870058E
:102C90000707060000F08888F08080800507070697
:102CA000000070888888A89068050707060000F073
:102CB0008888F0A09088050707060000788080705B
:102CC0000808F0050707060000F820202020202033
:102CD0000507070600008888888888887005070728
:102CE00006000088888888885020050707060000AD
:102CF0008888888888A850050707060000888850BB
:102D00002050888805070706000088888850202002
:102D100020050707060000F80810204080F8030788
:102D200007060100E08080808080E0050505060040
:102D3000018040201008030707060100E020202042
:102D40002020E00503030600042050880501010649
:102D50000000F80202020602058040050505060093
:102D60000070087888780507070600008080B0C8E2
:102D70008888F005050506000070808088700507CA
:102D80000706000008086898888878050505060089
:102D9000007088F880700507070600003048E040A2
:102DA0004040400506060600FF70888878087005D8
:102DB00007070600008080B0C888888801070706DA
:102DC0000200800080808080800308080601FF20C8
:102DD0000020202020A040040707060000808090EB
:102DE000A0C0A090030707060100C040404040403B
:102DF000E0050505060000D0A8A8A8A80505050659
:102E00000000B0C88888880505050600007088881D
:102E100088700506060600FFF08888F080800506A9
:102E2000060600FF78888878080805050506000072
:102E3000B0C880808005050506000070807008F02D
:102E40000407070600004040E0404040300505050B
:102E500006000088888898680505050600008888AF
:102E60008850200505050600008888A8A85005059B
:102E70000506000088502050880506060600FF88D9
:102E80008888780870050505060000F8102040F8CD
:102E9000030707060100204040804040200107074B
:102EA0000602008080808080808003070706010082
:102EB00080404020404080050202060002689000E9
:102EC000000006000000060900FE000000000001EE
:102ED000090008FE000005080806000040F0C88848
:102EE00088987810050808060000C0F88888888847
:102EF00088F80505050600012030F830200508088F
:102F00000600002070F820202020E00509090600B6
:102F1000FF2070A8A8B8888870200509090600FF5E
:102F2000E080C0B0A8283028280509090600FFF86D
:102F3000A88888888888A8F8050A0A0600FE205014
:102F400050505088A8A8887003030306000340A0CF
:102F5000400065E39BE111241FBECFEFD0E4DEBF4C
:102F6000CDBF12E0A0E0B1E0E2E9FBEE01E00BBF73
:102F700002C007900D92A438B107D9F724E1A4E864
:102F8000B2E001C01D92A231B207E1F717E1CAEA2F
:102F9000D7E104C02197FE010E942DF5C93AD1075F
:102FA000C9F70E9465E40C94BCF50C940000609194
:102FB0001C0170911D01072E000C880B990B0E94BB
:102FC00014EE2AE037ED43E25CE30E9473EE609377
:102FD00018017093190180931A0190931B010895B1
:102FE00011980000000087FD52C0419800000000C9
:102FF000119A0000000011980000000086FD53C0E7
:10300000419800000000119A000000001198000093
:10301000000085FD46C0419800000000119A0000A4
:10302000000011980000000084FD39C041980000A4
:103030000000119A0000000011980000000083FDBC
:103040002CC0419800000000119A00000000119867
:103050000000000082FD1FC0419800000000119A8E
:103060000000000011980000000081FD12C041988E
:1030700000000000119A00000000119800000000FC
:10308000419800000000119A000000000895419A44
:10309000ADCF419AEDCF419AE0CF419AD3CF419A3B
:1030A000C6CF419AB9CF419AACCF90916F00292FEA
:1030B000227091FF05C090916F009D7F90936F00EB
:1030C00034E0839FC0011124FC01EA57FC4F40818A
:1030D0005181628173818151974FFC0140835183FB
:1030E0006283738381E080938503222329F080919A
:1030F0006F00826080936F000895BC012091ED08FD
:103100003091EE084091ED085091EE0824173507F4
:1031100031F481E02617370709F080E008959A011D
:10312000F1CF8F929F92AF92BF92CF92DF92EF92A8
:10313000FF92CF93DF93EC0180900E0D90900F0DD6
:10314000A090100DB090110D20E030E0A901C50154
:10315000B4010E940DEE882309F454C0C880D980C0
:10316000EA80FB80A7019601C501B4010E940DEE23
:1031700018160CF04CC02091050D3091060D4091B1
:10318000070D5091080DC701B6010E940DEE88236E
:1031900031F1C092050DD092060DE092070DF0922C
:1031A000080D2091090D30910A0D40910B0D5091A1
:1031B0000C0D688179818A819B810E9473EE9B014D
:1031C000AC0160E070E080E89FE30E9464F26093ED
:1031D00005017093060180930701909308016091A7
:1031E0000501709106018091070190910801DF911E
:1031F000CF91FF90EF90DF90CF90BF90AF909F90D6
:103200008F90089560E070E080E89FE3F0CF60E089
:1032100070E0CB01ECCFCF93DF938091320B811123
:1032200005C08091330B882309F459C08091CC03E9
:1032300032994FC08E7F8093CC038091CC03339919
:103240004AC08D7F8093CC038091CC03349945C0D4
:103250008B7F8093CC03C091E008C0FF10C08091A9
:10326000A60880FF0CC08091CC0380FF08C080912D
:10327000450B81608093450B80E00E945518C1FF8B
:1032800010C08091A60881FF0CC08091CC0381FF03
:1032900008C08091450B82608093450B81E00E94BD
:1032A0005518C2FF1CC08091A60882FF18C08091EB
:1032B000330B8823A1F08091CC0382FF10C0809152
:1032C000450B84608093450B82E0DF91CF910C9495
:1032D00055188160B0CF8260B5CF8460BACFDF91DE
:1032E000CF9108950C9470C30F931F93CF93C62F63
:1032F0008C01CC2349F0F80181918F01882321F0C2
:103300000E947DBCC150F5CFCF911F910F910895C0
:103310009F92AF92BF92CF92DF92EF92FF920F9364
:103320001F93CF93DF935B01E9014A3009F4C4C0D6
:10333000453109F067C0DB011296ED91FC91F280F6
:10334000C681D781139A88E290E00197F1F7EF2CBC
:10335000E29420EFE22230E1932E9F0C48E2C42E4B
:10336000D12C88EF0E94F017C6010197F1F7BFE159
:10337000BF1508F488C08F2D807780680E94F017F1
:103380008E2D0E94F017C6010197F1F780E80E9488
:10339000F01780E00E94F017C6010197F1F78AEF5D
:1033A0000E94F017C6010197F1F78E01005F1F4FD1
:1033B0008881807F0E94F01789918295807F0E948A
:1033C000F017C017D107A1F7C6010197F1F7F394E1
:1033D000E0E1EE0EF910C5CF1398D50112960D91CC
:1033E0001C91C8010E946EC58111FEC1DF91CF9171
:1033F0001F910F91FF90EF90DF90CF90BF90AF9013
:103400009F900895FB0102811381ECEEE40FE433F9
:1034100008F050C0F0E0E15FF54E0C942DF59C1BD8
:10342000F1195A1AE41B5A1A5A1A5A1A5A1A5A1ADB
:103430005A1A5A1A5A1A5A1A5A1A5A1A5A1A5A1AEC
:103440005A1A5A1A5A1A5A1A5A1A5A1A5A1A5A1ADC
:103450005A1A5A1A5A1A5A1A5A1ADE1B5A1A5A1A47
:103460005A1A5A1A5A1A5A1A5A1A5A1AAF1B5A1A66
:103470005A1A5A1A5A1A5A1A5A1A5A1A5A1A5A1AAC
:103480005A1A011C561A80EE8F0D8068807F0E94A8
:10349000F0178F2D8295807F0E94F017C60101974B
:1034A000F1F780E80E94F01780E874CFD8011196F8
:1034B0008C91888381E09ACF0B9A1398399A41981E
:1034C000099A119A139A88E290E00197F1F788E738
:1034D00090E0CEE9DFE0FE013197F1F70197D9F7EF
:1034E00088EF0E94F01708E210E0C8010197F1F799
:1034F00080E20E94F01780E00E94F017C801019757
:10350000F1F780E00E94F01780E80E94F017C801F0
:103510000197F1F780E00E94F01780E10E94F01718
:10352000C8010197F1F7CE010197F1F7CE0101979C
:10353000F1F7CE010197F1F7CE010197F1F7CE0136
:103540000197F1F7CE010197F1F7CE010197F1F75D
:10355000CE010197F1F7CE010197F1F7CE01019766
:10356000F1F7CE010197F1F7CE010197F1F7CE0106
:103570000197F1F7CE010197F1F72197F1F780E27A
:103580000E94F01780E40E94F017C8010197F1F73C
:1035900080E20E94F01780E60E94F017C8010197B0
:1035A000F1F700E010E0C8E2D0E0812F807780687A
:1035B0000E94F017802F0E94F017CE010197F1F7BB
:1035C00080E80E94F01780E00E94F017CE0101977A
:1035D000F1F78AEF0E94F017CE010197F1F780E230
:1035E000119800000000419800000000119A0000AE
:1035F0000000119800000000419800000000119A9E
:103600000000000011980000000041980000000038
:10361000119A00000000119800000000419800007D
:103620000000119A0000000011980000000041986D
:1036300000000000119A0000000011980000000036
:10364000419800000000119A00000000119800004D
:103650000000419800000000119A0000000011983D
:1036600000000000419800000000119A00000000D6
:10367000119800000000419800000000119A00001D
:103680000000119800000000419800000000119A0D
:1036900000000000119800000000419800000000A8
:1036A000119A0000000011980000000041980000ED
:1036B0000000119A000000001198000000004198DD
:1036C00000000000119A00000000119800000000A6
:1036D000419800000000119A0000000011980000BD
:1036E0000000419800000000119A000000001198AD
:1036F00000000000419800000000119A0000000046
:10370000FE013197F1F7815009F06ACF88EF0E94EE
:10371000F017CE010197F1F71F5F005F103209F03B
:1037200044CF80E00E94F01780EC0E94F0172197B0
:10373000F1F7139881E05ACED80115964C91159760
:1037400050E0440F551F70E060E016968D919C91FB
:103750000E9454F5C8010E9484C581E047CE89814A
:103760002B81D80112966C91129713964C912130AF
:1037700009F467C0233009F048C038EF380F582FDC
:1037800091E0431708F490E041E0531708F040E05F
:1037900031E0561708F430E0592F542B352319F433
:1037A000942309F487CEFA8030E0F901E151FE4F0D
:1037B000D08025513E4FF901E08040C0B901C801D9
:1037C0000E9458C581E012CE1882D80112968C91C1
:1037D0001297898315968C91159781508A83139639
:1037E0008C918B8381E002CEF801458150E0440F3B
:1037F000551F70E060E0868197810E9454F581E05A
:10380000F5CDF8018581888355CE481708F452CE4E
:10381000861708F44FCEFA80E12CD12C243070F4B6
:10382000C3CFBE01C8010E9458C5898198819D0DF2
:1038300098838E0D8983FF0C09F43CCEF7FEF6CFFA
:10384000F0CF58E0580F382F9BCFDF92EF92FF92C6
:103850000F931F93CF93DF93EC01D62E1CAD0BADCE
:103860007C0184E0E80EF11CE98DFA8DC701099511
:10387000412F480F2D2D602FC7010E94FEC79BAD21
:10388000890F8BAF81E090E0DF91CF911F910F9175
:10389000FF90EF90DF9008951F93CF93DF93182F41
:1038A000EB01FE018491219681110AC0C5EED5E09D
:1038B000FE0184912196882331F00E94BD7DF8CFCE
:1038C0000E94BD7DEECFC0EED5E0112311F0C6ED14
:1038D000D5E0FE0184912196882319F00E94BD7DD8
:1038E000F8CF8AE0DF91CF911F910C94BD7DCF93EB
:1038F000DF93803D9240A1F0C5E0DAE2FE018491C1
:10390000219681110AC0CBE2D2E0FE01849121967A
:10391000882351F00E94BD7DF8CF0E94BD7DEECF7F
:1039200080E0DF91CF91089581E0FBCF4F925F92CD
:103930006F927F928F929F92AF92BF92CF92DF92BF
:10394000EF92FF92CF93DF93CDB7DEB76A970FB6B2
:10395000F894DEBF0FBECDBF9A8F898F5B014A01FD
:10396000DC01D7966D917D918D919C91DA970E94A3
:1039700012EE6B017C01F50120813181428153817E
:103980000E9473EE0E94D1F20E9466F33B015C013B
:10399000D4012D913D914D915C91C701B6010E94DA
:1039A00073EE0E94D1F20E9466F36D827E82AF8236
:1039B000B8862D813E814F815885283731054105D4
:1039C000510540F428E730E040E050E02D833E838D
:1039D0004F83588769837A838B839C8389819A81FB
:1039E000AB81BC8188379105A105B10540F428E77A
:1039F00030E040E050E029833A834B835C83E98DDB
:103A0000FA8DED5BFF4F80819181A281B38189871F
:103A10009A87AB87BC87BC01CD010E9414EE2B01B5
:103A20003C016D817E818F8198850E9412EE698BA9
:103A30007A8B8B8B9C8B20E030E0A901C301B20113
:103A40000E940DEE882309F43BC1A7019601C7012E
:103A5000B6010E9473EE4B015C0129893A894B89BA
:103A60005C89CA01B9010E9473EE9B01AC01C501DA
:103A7000B4010E9464F24B015C01A3019201C301F5
:103A8000B2010E9465F29B01AC01C501B4010E9424
:103A9000EDF20E94D1F20E9466F36D877E878F87D8
:103AA000988B69857A858B859C8590958095709596
:103AB00061957F4F8F4F9F4F0E9414EE4B015C0129
:103AC00069817A818B819C810E9412EE69877A8755
:103AD0008B879C8720E030E0A901C501B4010E94DA
:103AE0000DEE882309F4F0C029853A854B855C8565
:103AF000CA01B9010E9473EE6D8B7E8B8F8B988FFC
:103B0000A7019601C701B6010E9473EE9B01AC01AB
:103B10006D897E898F89988D0E9464F26B017C018A
:103B2000A5019401C501B4010E9465F29B01AC019D
:103B3000C701B6010E94EDF20E9495F3A98DBA8DDE
:103B400095968D909D90AD90BC909897750164016D
:103B50002D853E854F855889C21AD30AE40AF50A95
:103B60000E9466F3C61AD70AE80AF90AF7FE6EC081
:103B700020E030E0A901C301B2010E940DEE8823CC
:103B800009F4A6C0C501B4010E9412EE6B017C01CC
:103B9000A3019201C301B2010E9465F29B01AC0135
:103BA000C701B6010E9473EE6B017C0129893A8935
:103BB0004B895C89CA01B9010E9473EE9B01AC017B
:103BC000C701B6010E9464F26B017C0129853A8528
:103BD0004B855C85CA01B9010E9473EE9B01AC0163
:103BE000C701B6010E9465F26B017C0120E030E064
:103BF00040E850E4C301B2010E9473EE9B01AC01A6
:103C0000C701B6010E94EDF20E94D1F26B017C0166
:103C100020E030E0A9010E942CF418161CF0C12C01
:103C2000D12C7601C701B6010E9466F36D877E87AD
:103C30008F87988B86169706A806B90620F48D867E
:103C40009E86AF86B88AC12CD12C76018D859E8543
:103C5000AF85B889E98DFA8D82A793A7A4A7B5A7E8
:103C6000C80ED91EEA1EFB1EDF01C6A6D7A6E0AA13
:103C7000F1AA2D813E814F81588523AF34AF45AFE6
:103C800056AFDF9629813A814B815C812D933D931C
:103C90004D935C9313976A960FB6F894DEBF0FBEF0
:103CA000CDBFDF91CF91FF90EF90DF90CF90BF908D
:103CB000AF909F908F907F906F905F904F900895FE
:103CC00060E070E0CB01E5CE60E070E0CB0134CF86
:103CD00060E070E0CB0198CF8F929F92AF92BF923D
:103CE000CF92DF92EF92FF920F93CF93DF931F92C9
:103CF000CDB7DEB76C017B0149018091C7035B0141
:103D0000A40EB51E8823A1F0F60180819181480F91
:103D1000591F518340830F90DF91CF910F91FF90F6
:103D2000EF90DF90CF90BF90AF909F908F900895CD
:103D3000F601808191810E94DBF189839091B2022A
:103D4000992311F0002311F0F7018083BE016F5F0A
:103D50007F4FC4010E940EBFF601808191810196C0
:103D600091838083FFEFEF1AFF0AEA14FB0401F747
:103D7000D2CF7F928F929F92AF92BF92CF92DF92DB
:103D8000EF92FF920F931F93CF93DF931F92CDB7C4
:103D9000DEB7E091C703E11133C059018C017B010B
:103DA0006B01C40ED51EEC14FD0489F1F80180806E
:103DB0009180F70171907F017982C4010E94DBF14B
:103DC000781609F43AC0672DC4010E94E3F1C401DA
:103DD0000E94DBF19981891781F104E31AE2F8016D
:103DE00084910F5F1F4F811121C001E112E0F801A2
:103DF00084910F5F1F4F8823E1F00E94BD7DF7CFB4
:103E0000FC0120813181420F531F518340830F9069
:103E1000DF91CF911F910F91FF90EF90DF90CF90A6
:103E2000BF90AF909F908F907F9008950E94BD7D2E
:103E3000D6CF81E08093C703EACFBE016F5F7F4F8B
:103E4000C5010E940EBFF801808191810196918386
:103E50008083A9CFCF92DF92EF92FF92CF93C82FAA
:103E60000E9464C36B017C0124EA30E74DE75FE305
:103E70006091070B7091080B8091090B90910A0BD0
:103E80000E940DEE87FD18C08AEF90E0A0E0B0E040
:103E90008C0D9D1DAE1DBF1D8093190B90931A0BA9
:103EA000A0931B0BB0931C0BC0934D01CF91FF90BF
:103EB000EF90DF90CF90089580E090E0DC01E8CFB4
:103EC000CF93DF9300D000D0CDB7DEB7882349F081
:103ED0000E942BCB0F900F900F900F90DF91CF91FE
:103EE000089588EB91E09C838B8384E190E09A8332
:103EF0008983BE016D5F7F4FCE0101960E94DBBDBD
:103F0000E9CF80918D098230B1F0909126109923EC
:103F100059F080913710811104C08AE290E10C942D
:103F2000E0BC87E390E1FBCF813041F08EE193E18B
:103F30006FEF0C9449D189E393E1FACF8DE293E1DD
:103F4000F7CF809175098630D8F496E0899FF0010B
:103F50001124EF5AF64F20915601309157013183C9
:103F600020834091DA0C5091DB0C6091DC0C709155
:103F7000DD0C42835383648375838F5F809375095F
:103F80000895CF92DF92EF92FF920F931F93CF93FA
:103F9000DF93EC016A017B018091560190915701FA
:103FA0008C179D0781F12EE2C13DD207A9F58E5CE9
:103FB000984271F40E9464C36E517B4F8F4F9F4FA4
:103FC00060934D0970934E0980934F099093500967
:103FD000D0935701C0935601C092DA0CD092DB0CFB
:103FE000E092DC0CF092DD0CCE5CD84221F4109211
:103FF000210B1092750982E08093660181E0809325
:10400000D80C1092260BDF91CF911F910F91FF904A
:10401000EF90DF90CF90089528E2CE3CD207C1F612
:10402000815D9E4219F0CEECD8E2D2CF0E9464C3EB
:1040300000914D0910914E0920914F09309150097E
:10404000601B710B820B930B97FFEDCF8091B80F24
:104050009091B90F891B8F7021F4809126108823CD
:1040600011F3C0E2D4E2B4CF40E050E0BA018EECEC
:1040700098E20C94C11FE0917509EE2389F0E1509C
:10408000E093750986E0E89FF0011124EF5AF64F9E
:104090004281538164817581808191810C94C11F1B
:1040A0000C943420EF92FF920F931F93CF93DF93E2
:1040B0000E9440BFC091D60C85E0F82EFC0ED3E0E4
:1040C000DC1B12E01C1B01E00C1BEC2EE194C11167
:1040D0002DC08091D90C8823B1F08091660188238E
:1040E00059F081E09091D90C911180E024E048EAE8
:1040F00054E16E2D0E945BCBCF5FFC12E8CF84E0D1
:104100008093D70C0CC08091270B882331F3109239
:10411000270B0E943B208091D80C8823F1F2DF917D
:10412000CF911F910F91FF90EF900895C13061F5ED
:104130008091D90C813079F0809166018823E1F279
:1041400081E09091D90C913009F080E020E24CE9B7
:1041500054E1602FCFCF8091270B882369F3109211
:10416000270B4091BA035091BB036091B603709145
:10417000B7038091B2039091B3030E94D0D0809195
:10418000D80C8823C9F2CBCFC23009F042C080914D
:10419000D90C823081F080916601882309F4ACCF7C
:1041A00081E09091D90C923009F080E020E24CE758
:1041B00054E1612F9FCF8091270B882361F31092E8
:1041C000270B4091BA035091BB036FEF7FEF8091B3
:1041D000B2039091B3030E94D0D08091D80C882371
:1041E000D1F29DCF8091270B8823D1F01092270B1D
:1041F0004091BA035091BB036091B6037091B7032D
:1042000090E080E00E94D0D08091D80C882341F0CB
:1042100086CFC33009F070CF8091D90C833011F371
:1042200080916601882309F467CF81E09091D90CD1
:10423000933009F080E020E24CE854E16D2F5ACF32
:10424000EF92FF920F931F93CF93DF930E9440BF93
:10425000C091D60C85E0F82EFC0ED3E0DC1B12E0FA
:104260001C1B01E00C1BEC2EE194C1112DC08091B0
:10427000D90C8823B1F080916601882359F081E040
:104280009091D90C911180E024E04CED54E16E2D19
:104290000E945BCBCF5FFC12E8CF84E08093D70C09
:1042A0000CC08091270B882331F31092270B0E94BA
:1042B0003B208091D80C8823F1F2DF91CF911F91A0
:1042C0000F91FF90EF900895C13061F58091D90C66
:1042D000813079F0809166018823E1F281E090914C
:1042E000D90C913009F080E020E240ED54E1602FDC
:1042F000CFCF8091270B882369F31092270B409131
:10430000BC035091BD036091B8037091B9038091D3
:10431000B4039091B5030E94D0D08091D80C88232B
:10432000C9F2CBCFC23009F042C08091D90C8230A3
:1043300081F080916601882309F4ACCF81E09091EF
:10434000D90C923009F080E020E240EB54E1612F7B
:104350009FCF8091270B882361F31092270B409108
:10436000BC035091BD036FEF7FEF8091B403909138
:10437000B5030E94D0D08091D80C8823D1F29DCF74
:104380008091270B8823D1F01092270B4091BC031A
:104390005091BD036091B8037091B90390E080E043
:1043A0000E94D0D08091D80C882341F086CFC330B2
:1043B00009F070CF8091D90C833011F380916601A0
:1043C000882309F467CF81E09091D90C933009F0EC
:1043D00080E020E240EC54E16D2F5ACF2F923F92C3
:1043E0004F925F926F927F928F929F92AF92BF9205
:1043F000CF92DF92EF92FF920F931F93CF93DF93B1
:1044000000D000D0CDB7DEB70E9440BF1091D60CCF
:10441000612E85E0782E710E97E7892E992493946A
:10442000A12CB12C05E0011B84E0F82EF11A83E0E9
:10443000E82EE11A82E0D82ED11A24EF222E33245E
:104440003394412C512C81E0C82EC11A11113EC069
:104450008091D90C8823B9F080916601882361F09E
:10446000662D619581E09091D90C911180E024E056
:1044700043E853E10E945BCB1F5F7112E7CF86E0F8
:104480008093D70C0CC08091270B882329F31092BE
:10449000270B0E943B208091D80C8823E9F20F90D3
:1044A0000F900F900F90DF91CF911F910F91FF9080
:1044B000EF90DF90CF90BF90AF909F908F907F90C4
:1044C0006F905F904F903F902F900895113041F57D
:1044D0008091D90C813079F080916601882361F256
:1044E00081E09091D90C913009F080E020E248E71A
:1044F00053E16C2DBFCF8091270B882369F3109275
:10450000270B29823A824B825C82BE016F5F7F4F0C
:1045100080EA0E9432788091D80C8823E9F2BFCFDC
:10452000123009F080C08091D90C823081F08091E6
:104530006601882309F4A0CF81E09091D90C9230D4
:1045400009F080E020E24CE553E16D2D93CF80919E
:10455000270B882361F31092270B89829A82AB8202
:10456000BC82BE016F5F7F4F88E70E9432788091E6
:10457000D80C8823E1F293CF8091D90C833081F05D
:1045800080916601882309F477CF81E09091D90C5E
:10459000933009F080E020E240E553E16E2D6ACFD0
:1045A0008091270B882361F31092270B0E946C786F
:1045B0008091D80C882321F372CF8091D90C84305C
:1045C00081F080916601882309F456CF81E09091B3
:1045D000D90C943009F080E020E246E453E16F2DDD
:1045E00049CF8091270B882361F31092270B0E94FB
:1045F00051788091D80C882321F351CF8091270BDB
:104600008823E9F01092270B89829A82AB82BC82C0
:10461000BE016F5F7F4F8CE30E9432788091D80C8F
:10462000882369F03CCF133009F4A6CF143029F267
:10463000153009F021CF8091D90C8530F9F28091A5
:104640006601882309F418CF81E09091D90C953048
:1046500009F080E020E24BE653E1602F0BCF9CE0B5
:10466000899F802D112491E0980F9093C80C2CE025
:10467000280F2093C90C4091AF0F30E02E5F3F4FC1
:104680004217130609F0A4F42091B10F921780F499
:10469000662341F08E5F0E9413C78091C90C8E5F24
:1046A0000E9413C78091C90C1092B20F8093B30F70
:1046B0000895CF93DF931F92CDB7DEB78091B40FEB
:1046C000811105C081E08093B40F0E94C9C560913B
:1046D0007D0F70917E0F19829E012F5F3F4F4FE03B
:1046E0008BE79FE00E948BC50F90DF91CF910895DB
:1046F0009FEF980F993020F40E94AAD081E008958E
:104700000E947DBCFBCF9FEF980F993010F40C9462
:10471000AAD00C947DBCCF93DF93EC01FE01849171
:10472000882321F00E9483232196F8CFDF91CF9137
:104730000895CF93DF93EC018991882319F00E94AB
:104740008323FACFDF91CF910895AF92BF92CF929A
:10475000DF92EF92FF920F931F93CF93DF935C0151
:104760007B010E9476D6C82FC7010E94CAD604E1F9
:1047700010E0081B1109DD24D394C017110619F0AD
:1047800014F082E0D82E80917C0F90E06D2D70E0C7
:104790006F5F7F4F0E9419F5C62EC6E0C60F80914D
:1047A000AF0FC81788F12091B10F4C2F4B50550B0C
:1047B000241715064CF11092B20FC093B30FC50128
:1047C0000E9482BCD1E0E114F10499F08AE30E94D6
:1047D0007DBC52E0D5121AC0CC0D8091AF0FC81726
:1047E00040F02091B10F4C2F4B50550B241715065C
:1047F0007CF4DF91CF911F910F91FF90EF90DF90AC
:10480000CF90BF90AF900895D0E0DDCFDD2389F346
:10481000802F880F800F880F8093B20FC093B30F43
:1048200080E20E947DBCC701DF91CF911F910F9163
:10483000FF90EF90DF90CF90BF90AF900C949923B2
:10484000CF92DF92EF92FF92CF93DF938091270B6D
:104850001092270B882351F01092210BDF91CF91FA
:10486000FF90EF90DF90CF900C943B2081E08093FD
:10487000210B8091DA0C9091DB0CA091DC0CB091B3
:10488000DD0C0097A105B10509F456C02AE0289F68
:10489000E001299FD00D11241092DA0C1092DB0C4C
:1048A0001092DC0C1092DD0CBE010D2E000C880B5A
:1048B000990B0E9414EE209196093091970940912E
:1048C0009809509199090E9473EE2091F10C309152
:1048D000F20C4091F30C5091F40C0E9465F26B01C4
:1048E0007C0120E030E040EA51EC0E942CF487FD8E
:1048F00023C020E030E040EA51E4C701B6010E9445
:104900000DEE1816CCF08091E40C82FF0AC0809165
:10491000B0039091B103C80FD91FD093B103C093D6
:10492000B003C092F10CD092F20CE092F30CF09232
:10493000F40C82E08093660180916601882379F00F
:1049400081EF9CE00E9499BFBC0189E194E1DF9175
:10495000CF91FF90EF90DF90CF900C94A523DF9143
:10496000CF91FF90EF90DF90CF900895CF92DF929C
:10497000EF92FF920F93CF93DF93982F862F6A01C8
:104980007901692F0E942F239091AF0F8091C90C5C
:10499000891708F445C09091B10F8091C80C981701
:1049A00008F43EC0C701002381F00E9476D6C82FCC
:1049B000D4E1D81BF6018491882351F00E9478231A
:1049C000D81BFFEFCF1ADF0AF5CF0E94CAD6EFCF70
:1049D0008AE30E947DBCD15010F080E2FACF809132
:1049E000C90C9C2F990F990FC91BCC0FC058C093AD
:1049F000B20F8093B30FC701002349F0DF91CF912D
:104A00000F91FF90EF90DF90CF900C948B23DF916C
:104A1000CF910F91FF90EF90DF90CF900C9499235E
:104A2000DF91CF910F91FF90EF90DF90CF9008959D
:104A30008F929F92AF92BF92CF92DF92EF92FF92AE
:104A40000F931F93CF93DF930E9440BFC091D60C6A
:104A500085E0A82EAC0E86E0F82EFC1AD1E085E0A9
:104A6000E82EEC1A84E0D82EDC1A83E0C82ECC1A8B
:104A700082E0B82EBC1A9D2E9C1A8C2E8194C111F6
:104A80002EC08091D90C882389F0809166018823FB
:104A900009F443C081E09091D90C911180E024E0A9
:104AA00047E754E1682D0E945BCB37C08091270B0C
:104AB000882359F31092270B0E943B208091D80C39
:104AC000882319F3DF91CF911F910F91FF90EF9001
:104AD000DF90CF90BF90AF909F908F900895C1309E
:104AE000D1F58091D90C8130F9F08091660188234D
:104AF000A1F011E08091D90C813009F010E0809193
:104B00001E0190911F010E94A2C900E09C014BE68A
:104B100054E1692D812F0E94B624CF5FAC12AFCF34
:104B200087E08093D70CCECF8091270B8823E9F2C2
:104B30001092270B10E000E027EE33E04AE050E04F
:104B40006EE171E081E794E10E946EC18091D80C22
:104B5000882359F2B7CFC23009F0F4C08091D90C44
:104B60008230B1F0809166018823B9F211E0809122
:104B7000D90C823009F010E080916F0F9091700F86
:104B80000E94A2C900E09C014DE554E16B2DC2CF0B
:104B90008091270B882331F31092270BD093DE0CE2
:104BA0001092220B1092230B1092240B1092250BC3
:104BB00002E719E124E031E050E040E06FE67FE0F9
:104BC00084E694E10E946EC18091D80C882351F252
:104BD00079CF8091D90C8330B9F080916601882318
:104BE00009F49BCF11E08091D90C833009F010E0DB
:104BF0008091CA0C9091CB0C0E94A2C900E09C014C
:104C000045E554E16C2D86CF8091270B882329F34D
:104C10001092270BD093DE0C1092220B1092230BD4
:104C20001092240B1092250B0BEE17E227E830E0D0
:104C300050E040E06AEC7CE089E594E10E946EC1BE
:104C40008091D80C882349F23DCF8091D90C8430D3
:104C5000B9F080916601882309F45FCF11E080915B
:104C6000D90C843009F010E08091CC0C9091CD0CDF
:104C70000E94A2C900E09C0141E454E16D2D4ACF9D
:104C80008091270B882329F31092270BD093DE0CF9
:104C90001092220B1092230B1092240B1092250BD2
:104CA00010E000E02FEF30E050E040E06CEC7CE002
:104CB0008BE494E10E946EC18091D80C882349F264
:104CC00001CF8091D90C8530B9F08091660188239D
:104CD00009F423CF11E08091D90C853009F010E060
:104CE00080911C0190911D010E94A2C900E09C01CD
:104CF00047E354E16E2D0ECF8091270B882329F3D3
:104D00001092270B07ED17E127EE33E04AE050E061
:104D10006CE171E08CE394E10E946EC18091D80C4B
:104D2000882399F2CFCE8091270B8823D9F0109257
:104D3000270B80E294E20E9444D78091D80C88230C
:104D400089F0C0CEC33009F444CFC43009F47DCF1C
:104D5000C53009F4B6CFC63009F0DFCE8091D90C4A
:104D6000863009F380916601882309F4D6CE81E06C
:104D70009091D90C963009F080E023E048E254E1AC
:104D80006F2D91CECF93C82F823079F024F48130EB
:104D900049F0CF910895833011F08430D1F78AE340
:104DA0009AE205C0CF910C94B8D085EC9EE20E94A7
:104DB00099BCC093290BEDCF8F929F92AF92BF9277
:104DC000CF92DF92EF92FF920F931F93CF93DF93D7
:104DD000B0E4A0E06A2F70E0AB014B0F511D559578
:104DE00047954A1711F0B41319C0E2EDFFE0659141
:104DF0007491072E000C880B990B0E9414EEDF9122
:104E0000CF911F910F91FF90EF90DF90CF90BF90C7
:104E1000AF909F908F900895B42FDECF9A012150CC
:104E20003109220F331F220F331FF901EC52F14FCA
:104E3000E590F490F901E852F14FC591D4918E15A7
:104E40009F0554F3A42FC817D9070CF4C3CFF90159
:104E5000EA52F14F05911491F901E652F14FC590D4
:104E6000D490BC016E197F09072E000C880B990B9A
:104E70000E9414EE4B015C01B601601B710B072E02
:104E8000000C880B990B0E9414EE9B01AC01C5012C
:104E9000B4010E9473EE4B015C01BE016E197F09E3
:104EA000072E000C880B990B0E9414EE9B01AC019D
:104EB000C501B4010E94EDF26B017C01B801110F34
:104EC000880B990B0E9414EE9B01AC01C701B6013F
:104ED0000E9465F294CF0F930FB70F9300916E006D
:104EE0000B7F00936E0078940F930BB70F930CB762
:104EF0000F921F922F933F934F935F936F937F93E4
:104F00008F939F93AF93BF93EF93FF9311240E94CE
:104F1000A154FF91EF91BF91AF919F918F917F919C
:104F20006F915F914F913F912F911F900F900CBF08
:104F30000F910BBF0F910460F89400936E000F91D6
:104F40000FBF0F911895CF92DF92EF92FF92C09012
:104F5000A803D090A903E090AA03F090AB0360915E
:104F6000CA0C7091CB0C66507109072E000C880B8F
:104F7000990B0E9414EEA70196010E942CF41816BA
:104F80000CF520E030E040E050E4C701B6010E949B
:104F900065F20E9466F37093300960932F090E94B6
:104FA00064C3605A75418F4F9F4F60932B09709374
:104FB0002C0980932D0990932E09FF90EF90DF909C
:104FC000CF90089510922B0910922C0910922D0960
:104FD00010922E09F2CF0C94A3278F929F92AF923A
:104FE000BF92CF92DF92EF92FF920F931F93CF93D6
:104FF000DF93B0E4A0E06A2F70E0AB014B0F511DCE
:1050000055954795A41711F0B41319C0E2EDFFE0D0
:1050100065917491072E000C880B990B0E9414EE79
:10502000DF91CF911F910F91FF90EF90DF90CF9084
:10503000BF90AF909F908F900895B42FDECF9A01CC
:1050400021503109220F331F220F331FF901EC5277
:10505000F14FE590F490F901E852F14FC591D491E8
:105060008E159F0554F3A42FC817D9070CF4C3CF8E
:10507000F901EA52F14F05911491F901E652F14F0D
:10508000C590D490BC016E197F09072E000C880BC7
:10509000990B0E9414EE4B015C01B601601B710B71
:1050A000072E000C880B990B0E9414EE9B01AC019B
:1050B000C501B4010E9473EE4B015C01BE016E1983
:1050C0007F09072E000C880B990B0E9414EE9B01A0
:1050D000AC01C501B4010E94EDF26B017C01B80185
:1050E000110F880B990B0E9414EE9B01AC01C701B4
:1050F000B6010E9465F294CF80913B0990913C09E2
:105100000E94DC266093710F7093720F8093730F6F
:105110009093740F8091390990913A090E94ED277C
:105120006093A8037093A9038093AA039093AB03A1
:10513000A8951092A20308950F931F9380918D0953
:10514000813019F50E9464C30091FF081091000995
:105150002091010930910209601B710B820B930BA6
:1051600028EE33E040E050E00E9401F26091FB083D
:105170007091FC088091FD089091FE08620F731FEA
:10518000841F951F1F910F910895609103097091DD
:1051900004098091050990910609D6CF3F924F925C
:1051A0005F926F927F928F929F92AF92BF92CF92B7
:1051B000DF92EF92FF920F931F93CF93DF93CDB7C0
:1051C000DEB72A970FB6F894DEBF0FBECDBF1092A0
:1051D000DE0C8091270B1092270B882309F10E9487
:1051E000592340E050E0BA0181ED9EE20E94C11FC8
:1051F0002A960FB6F894DEBF0FBECDBFDF91CF91D8
:105200001F910F91FF90EF90DF90CF90BF90AF90E4
:105210009F908F907F906F905F904F903F900895F8
:105220004091DA0C5091DB0C6091DC0C7091DD0C3C
:1052300020911E0130911F01C901840F951F243652
:1052400031050CF091C2853691050CF094C2909313
:105250001F0180931E011092DA0C1092DB0C109249
:10526000DC0C1092DD0C80911E0190911F01883E94
:10527000E3E09E0714F087EE93E08A30910514F482
:105280008AE090E090931F0180931E010E9464C306
:1052900000917709109178092091790930917A0964
:1052A0006B017C01C01AD10AE20AF30A9701860158
:1052B00037FD11C0209176092095209376096A5414
:1052C0007C4F8F4F9F4F609377097093780980933D
:1052D000790990937A09309076090E94B8D080912C
:1052E000AF0F853190F4332041F08091CC0C909138
:1052F000CD0C0EEE11E1892B11F40EEB10E123E140
:1053000040E161E080E00E9462C68091AF0F8D3184
:1053100008F044C1883060F560916F0F7091700F94
:10532000072E000C880B990B0E9414EE20E030E051
:1053300040E05FE30E9465F20E945FF3CB010E94B0
:10534000A2C9FC01208130E0203229F4218133E020
:10535000203209F436E026E2231B2093B20F27E027
:105360002093B30F0E9499238BEB90E10E948B2333
:105370008091AF0F8D3108F059C08091B10F853108
:1053800008F454C020E030E040E05FE36091710F2A
:105390007091720F8091730F9091740F0E9465F25B
:1053A0000E945FF3CB010E94A2C9FC01208130E082
:1053B000203229F4218133E0203209F436E026E25C
:1053C000231B2093B20F2CE12093B30F0E9499234B
:1053D0008BEB90E10E948B238091AF0F853130F5EC
:1053E0008091B10F813110F160916F0F7091700F4A
:1053F000072E000C880B990B0E9414EE2091710F60
:105400003091720F4091730F5091740F0E942CF4E1
:1054100018160CF0C2C110929B0F22E042E061E12D
:105420008EE20E9440C781E080939B0F8091AF0F76
:10543000883060F56091CA0C7091CB0C072E000C7F
:10544000880B990B0E9414EE20E030E040E05FE30F
:105450000E9465F20E945FF3CB010E94A2C9FC0189
:10546000208130E0203229F4218133E0203209F418
:1054700036E029E4231B2093B20F27E02093B30FDB
:105480000E9499238BEB90E10E948B238091AF0FB8
:105490008D3108F059C08091B10F853108F454C0A6
:1054A00020E030E040E05FE36091A8037091A90341
:1054B0008091AA039091AB030E9465F20E945FF372
:1054C000CB010E94A2C9FC01208130E0203229F4E6
:1054D000218133E0203209F436E029E4231B2093B4
:1054E000B20F2CE12093B30F0E9499238BEB90E134
:1054F0000E948B238091AF0F853130F58091B10FE1
:10550000813110F16091CA0C7091CB0C072E000C08
:10551000880B990B0E9414EE2091A8033091A903E7
:105520004091AA035091AB030E942CF418160CF082
:105530003BC110929B0F22E042E062E180E50E94B5
:1055400040C781E080939B0F8091AF0F8C3130F585
:105550008091B10F843110F18091CC0C9091CD0CE1
:10556000019644E6489F9001499F300D112437FF72
:1055700002C021503F4F832F932F990F990B009713
:1055800069F027E62093B20F2BE12093B30F0E941E
:10559000A2C90E94992385E20E947DBC80911912C4
:1055A000882359F18091AF0F843338F58091B10F82
:1055B0008A3218F127E048E06AE28AE20E9440C796
:1055C00025E042E06CE282E30E9440C724E04AE02A
:1055D00061E38AE20E94C8C760917D0F70917E0FDF
:1055E00082E38093970F8BE28093980F27E93FE047
:1055F00042E38BE79FE00E948BC58091AF0F85331C
:1056000050F48091B10F813330F024E04AE461E33B
:1056100086E30E94C8C780911912882309F444C008
:105620008091C3129091C412A091C512B091C6127C
:105630000097A105B105C1F1BC01CD016D597F4FA6
:105640008F4F9F4F24E630E040E050E00E9401F28F
:105650006091C7127091C8128091C9129091CA12BC
:105660000E9401F2223000F18091AF0F8433E0F408
:105670008091B10F8233C0F0F8E42F9FB001112464
:10568000072E000C880B990B0E9414EE2AE037EDD0
:1056900043E25CE30E9473EE0E9466F3462F22E031
:1056A00062E387E30E9440C78091AF0F813308F027
:1056B000A5C08091B10F893208F4A0C00E949C2837
:1056C0002B013C0120E13EE040E050E00E9401F26D
:1056D000D22EC32E022F132F7CE3872E912CA12CC8
:1056E000B12CC301B201A50194010E9401F2CA01CB
:1056F000B901A50194010E9401F2A62E972ECE01B8
:1057000001967C0190E8491691E5590691E06906F9
:10571000710408F450C0C301B20120E831E541E052
:1057200050E00E9401F269019F92AF92C80168E1C6
:1057300070E00E9405F59F938F933F932F938BE921
:1057400090E19F938F93FF92EF920E94A4ED0FB68A
:10575000F894DEBF0FBECDBF89E0FAE0CF16D104CA
:1057600008F03FC088E03DC02436310539F084366A
:1057700091050CF06CCD84E690E069CD4730510581
:105780006105710514F0069762CD4A3F5F4F6F4F78
:105790007F4F0CF068CD06965ACD22E042E061E1E1
:1057A0008EE20E9440C742CE22E042E062E180E504
:1057B0000E9440C7C9CE0436110508F0D8C19F9297
:1057C000AF92CF92DF9281E990E19F938F93FF9206
:1057D000EF920E94A4ED0FB6F894DEBF0FBECDBFCE
:1057E00085E0982F990F990F891B855A8093B20FE6
:1057F00080E38093B30FC7010E949923E091750F56
:10580000F091760F8481811109C12091E50C3091CE
:10581000E60C4091E70C5091E80C6091F50C70910A
:10582000F60C8091F70C9091F80C0E9465F26B01D8
:105830007C0120E030E0A9010E940DEE20E030E084
:1058400040E05FEB87FD04C020E030E040E05FE334
:10585000C701B6010E9465F20E945FF3CB010E946E
:1058600023C9BC0188E899E00E948DF52091E90CDC
:105870003091EA0C4091EB0C5091EC0C6091F90CDA
:105880007091FA0C8091FB0C9091FC0C0E9465F2D7
:105890006B017C0120E030E0A9010E940DEE20E0C8
:1058A00030E040E05FEB87FD04C020E030E040E006
:1058B0005FE3C701B6010E9465F20E945FF3CB016E
:1058C0000E9423C9BC0183E899E00E948DF52091D4
:1058D000ED0C3091EE0C4091EF0C5091F00C60917A
:1058E000FD0C7091FE0C8091FF0C9091000D0E94B8
:1058F00065F26B017C0120E030E04AE754E40E944D
:1059000073EE2B013C0120E030E0A901C701B60194
:105910000E940DEE20E030E040EA50EC87FD04C02C
:1059200020E030E040EA50E4C301B2010E9465F299
:1059300020E030E040E251E40E94EDF20E945FF38B
:105940006B017C01F7FC26C160E2F0E1CF16F7E2C3
:10595000DF06E104F10484F0B60120E137E240E023
:1059600050E00E9423F2CA01B9012AE030E040E091
:1059700050E00E9423F2605D6093CF0C60E228EE5D
:10598000C21623E0D206E104F1048CF0C701B6018F
:1059900028EE33E040E050E00E9423F2CA01B90152
:1059A0002AE030E040E050E00E9423F2605D609326
:1059B000D00CC701B60124E630E040E050E00E9480
:1059C00023F26AE0462E512C612C712CCA01B901D8
:1059D000A30192010E9423F2605D6093D10CC70184
:1059E000B601A30192010E9423F2162FCA01B90148
:1059F000A30192010E9423F2112309F4D5C08EE283
:105A00008093D20C605D6093D30C105D1093D40C26
:105A10006FEC7CE08CE799E00E948DF58091AF0FF0
:105A2000883208F057C08091B10F8D3108F452C010
:105A30002BE040E86DE180E00E94C8C78091AF0F85
:105A4000873208F047C08091B10F8F3108F442C00F
:105A500083E08093B20F16E21093B30F89EB90E1CD
:105A60000E948B238BE08093B20F1093B30F3320EF
:105A700009F4ACC088E899E00E9499238BE28093F6
:105A8000B20F16E21093B30F82EB90E10E948B23CA
:105A900083E38093B20F1093B30F332009F4B1C0A6
:105AA00083E899E00E94992383E58093B20F16E280
:105AB0001093B30F80EB90E10E948B238BE58093D2
:105AC000B20F1093B30F332009F4B6C08CE799E0FE
:105AD0000E9499238091AF0F823310F58091B10F0E
